:020000040800F2
:100000000004002081040008A1050008A1050008E3
:10001000A1050008A1050008A1050008A105000828
:10002000A1050008A1050008A1050008C1050008F8
:10003000A1050008A1050008A10500089106000817
:10004000A1050008A1050008A1050008A1050008F8
:10005000A1050008A1050008A1050008A1050008E8
:10006000A1050008A1050008A1050008E11F00087E
:10007000112000084120000871200008A12000087C
:10008000D120000801210008A1050008A1050008F1
:10009000A1050008A1050008A1050008A1050008A8
:1000A000A1050008A1050008A1050008A105000898
:1000B000A1050008A105000821320008A1050008DB
:1000C000A1050008A1050008A1050008A105000878
:1000D000A10500082134000841340008A1050008EA
:1000E000A1050008A1050008A1050008A105000858
:1000F000A1050008A1050008A1050008312100089C
:10010000A1050008A1050008A1050008A105000837
:10011000A1050008A1050008A1050008A105000827
:100120006121000891210008C1210008F121000887
:1001300021220008A1050008A1050008A10500086A
:10014000A1050008A1050008A1050008112C000860
:100150005122000881220008B1220008A1050008F0
:10016000A1050008A1050008A1050008A1050008D7
:10017000A1050008A1050008A1050008A1050008C7
:08018000A1050008A10500081B
:1001900030B52C4D2C4C83B001F062F900F008FB17
:1001A00003F0A6FA284601F0FBFA2146284601F0A2
:1001B0001FFB23681B6D9A6B22F400229A634FF495
:1001C0007A7000F02DFD2149206801F019FC2368A8
:1001D0001B6D9A6B42F400229A63002003F090FD9D
:1001E0001B48042140F2823202F03AFA00241848F7
:1001F000082140F2823202F033FA00941548164B7F
:100200004FF498714A2200F0F3FC44B1237F0E2B87
:1002100013D04FF4FA7000F003FD002CF6D1D5F89E
:1002200054321B681B78042BF3D10C484FF40B613C
:10023000402203F075FA0446EBE7204600F028FD63
:100240000024E6E7780D0020F04800081048000878
:1002500000000240D00F0020D13D000800470008F8
:10026000032AC9B270B408D82AB10346121803F899
:10027000011B9342FBD170BC70478307024409D035
:10028000441C04F00305234604F8011C0134002D2E
:10029000F7D100E00346D51A01EB01243F2D04EB12
:1002A00004442CDD1C604033D51A43F83C4C3F2DF0
:1002B00043F8384C43F8344C43F8304C43F82C4C5A
:1002C00043F8284C43F8244C43F8204C43F81C4C8A
:1002D00043F8184C43F8144C43F8104C43F80C4CBA
:1002E00043F8084C43F8044CDCDC08E01C60103395
:1002F000D51A43F80C4C43F8084C43F8044C0F2D26
:10030000F4DC032D08DD1D1D561B45F8044C032E9F
:100310002B4605F10405F7DC9A42ACD901330132D2
:1003200003F8011C01339342FAD1A4E70000000056
:1003300041EA00039B0710B414D10B68A3F101320A
:1003400022EA030212F0803F0CD10A1D40F8043B60
:10035000114652F8043BA3F1013424EA030414F0DB
:10036000803FF3D04A1E12F8013F00F8013B002BFA
:10037000F9D1013810BC70470000000000000000F7
:1003800040F60003C2F2000370B41D6810F8013B90
:10039000EC181A46647804F00304012C11F8014BA0
:1003A00008BF03F120022E192346767806F00306D3
:1003B000012E08BF04F12003D21A01D1002BE5D190
:1003C000104670BC704700BF000000000000000035
:1003D000F0B40478002C21D00F7806463046AFB137
:1003E000A74219D04B1C01E0944209D01D4613F8D6
:1003F000012B002AF8D144780136002CEED12A785E
:10040000002A14BF30460020F0BC704744780D46E7
:100410000136002CE2D1F2E73A46F1E72046F3E755
:10042000F0B40478D4B10F7806469FB10546BC42BB
:1004300018BF0A4602D108E09C4206D012F8013FDC
:10044000002BF9D1281AF0BC70476C7801361CB12A
:100450003546ECE73846F6E7301AF4E72046F2E78F
:10046000704700BFAFF30080AFF30080AFF30080B0
:10047000FEE700BFAFF30080AFF30080AFF3008072
:1004800072B6374880F30988022383F31488BFF3D8
:100490006F8F344A344B9A420BD2D143C91821F0A2
:1004A0000301131F89184FF0553243F8042F8B4274
:1004B000FBD12E4A82420CD22D49131DC91A21F0BC
:1004C0000301131F89184FF0553243F8042F8B4254
:1004D000FBD103F065F82749274B99420BD2C8435B
:1004E000C01820F00300254C04300023E258CA5005
:1004F00004338342FAD1224A224B9A420AD2D14390
:10050000C91821F00301131F8918002243F8042F92
:100510008B42FBD1FFF7A4FF1B4D1C4B9D420BD21E
:10052000EE43F618B608043D0136002455F8043FA2
:1005300001349847B442F9D1FFF72AFE144D154B08
:100540009D420BD2EE43F618B608043D0136002456
:1005500055F8043F01349847B442F9D1FFF788FFBA
:1005600000080020000000200004002000040020FB
:100570000308002000080020440800200849000863
:100580004808002030110020880100088801000878
:100590008801000888010008AFF30080AFF30080F5
:1005A000FEE700BFAFF30080AFF30080AFF3008041
:1005B00000F0AEFA00DF00BFAFF30080AFF30080C1
:1005C000EFF30983203383F30988002383F3118831
:1005D000704700BFAFF30080AFF30080AFF300803F
:1005E00008B50A4B00229A60094A07201021DA60F8
:1005F00000F0B6F80A204FF4007100F0B1F80B20BB
:100600008021BDE8084000F0ABB800BF00ED00E07D
:100610000003FA05AFF30080AFF30080AFF3008072
:10062000202383F31188164B5B6813F4006319D001
:10063000EFF30983A3F1200282F3098811494FF0F7
:1006400080708A6943F8040CD07F096892688968D1
:1006500058B1914294BF0022012262B10A4A43F884
:10066000082C704783F311887047914234BF0022F1
:100670000122002AF2D1054A43F8082C704700BF36
:1006800000ED00E060090020B1050008B405000895
:1006900008B5202383F3118800F0BAF8002383F310
:1006A0001188BDE80840FFF7BBBF00BFAFF3008073
:1006B0002DE9F04FC1F80CD0D0F80CD0BDE8F08F88
:1006C000002383F311882846A04700F0D9FA704729
:1006D000F0B484080F4BC03400F0030553F82470C5
:1006E000ED00FF26420906FA05F627EA060601FA9A
:1006F00005F500F01F0002F16007012101FA00F08A
:100700002E4343F8246043F8270043F82200F0BC4E
:10071000704700BF00E100E0AFF30080AFF300805E
:10072000410910B40C4B00F01F022031012404FADF
:1007300002F4820843F82140C03200F0030053F86D
:100740002210C000FF2404FA00F021EA000043F860
:10075000220010BC704700BF00E100E0AFF3008052
:1007600082080A4B063200F0030030B4C00053F890
:100770002250FF2404FA00F425EA040401FA00F1EF
:100780000C4343F8224030BC704700BF00ED00E04E
:10079000024B034A9B699A61FEE700BF6009002093
:1007A00070400008AFF30080AFF30080AFF300802B
:1007B00010B582B0FFF714FF00F0D2F800F058F83F
:1007C00000F036FD00F07CFD40210B4800F0B0F950
:1007D0000A49012288610277002383F3118862B6F7
:1007E000074C896907488C610093C021064B00F0D3
:1007F000FFF902B010BD00BF4808002060090020CA
:10080000804000089008002091070008AFF30080A6
:1008100038B5134B9B69DA7F0AB1013ADA771A6A65
:10082000104C01321A62E36822680133A242E3608D
:1008300014D09568013D956085B91368D1685C60F6
:100840002360D560002383F3118810698847202333
:1008500083F3118822689368002BEED038BD00BF67
:100860006009002050090020AFF30080AFF3008042
:10087000044B4FF0FF329A6000225B601B60DA602D
:10088000704700BF50090020AFF30080AFF3008035
:1008900070B40C4E03613468C260A568A94204D9E3
:1008A0002468491BA5688D42FAD363680460B4428A
:1008B000436018606060816002D0A368591AA1602B
:1008C00070BC704750090020AFF30080AFF3008088
:1008D0000368074A934203D0996882688A189A602D
:1008E0004268136003685A600023C360704700BF0A
:1008F00050090020AFF30080AFF30080AFF3008019
:10090000202383F31188037F0D2B11D8DFE803F038
:1009100020101007100B101010101010100B436A4D
:100920009A6801329A6090E80C001A60026853607D
:100930004FF0FF3242628168074B002202771B684A
:100940009A688A42FBD25A6803604260106058601D
:10095000002383F31188704760090020AFF3008003
:10096000034B00225B601B609A605B611B617047F8
:1009700060090020AFF30080AFF30080AFF3008088
:1009800000228168054B02771B689A688A42FBD275
:100990005A68036042601060586070476009002028
:1009A000084B10B499691A68087714201468C8773E
:1009B00001201077104663601C609A6110BCFFF73D
:1009C00077BE00BF60090020AFF30080AFF3008066
:1009D00030B54B1C87B0054611D00B4C0B4AA369B0
:1009E00001A8FFF755FF2846FFF7DAFF049B13B174
:1009F00001A8FFF76DFFA369586A07B030BDFFF784
:100A0000CFFF014CF7E700BF600900200109000893
:100A1000F0B4144F8568BE690446B0686162002373
:100A200085420CD823773B461B689A689542FBD9D0
:100A30005A682360626014605C60F0BC7047337772
:100A40003B461B689A689042FBD95A6833607260D3
:100A500020465E603146012316602377BC61F0BCFE
:100A6000FFF726BE60090020AFF30080AFF30080DF
:100A70000E4B18689969026830B453608C681A602C
:100A8000986114230125CB77002305770B77034664
:100A900000E01B689A68A242FBD25A680B604A6069
:100AA0001160596030BCFFF703BE00BF6009002031
:100AB0000D4B18689969026830B453608C681A60ED
:100AC00001259861002305770B77034600E01B683A
:100AD0009A68A242FBD85A680B604A60116059605C
:100AE00030BCFFF7E5BD00BF60090020AFF3008018
:100AF000044B1A689B6992689B689A4200D87047B9
:100B0000FFF7D6BF60090020AFF30080AFF300808D
:100B1000034B9B69DB7F0BB1FFF7CABFFFF7A8BF91
:100B200060090020AFF30080AFF30080AFF30080D6
:100B3000F0B40F4C016465690461002200F12C06D9
:100B4000816000F1280745614FF0020C60610121CE
:100B5000142480F81CC04277C477C26382630262A7
:100B600081778261286187620663C662F0BC704744
:100B700060090020AFF30080AFF30080AFF3008086
:100B80002DE9F0032439164E4718D6F814C0C76073
:100B90004350069B7B60134B3B6202230377142375
:100BA0000025904600F1280900F12C02C3770123AB
:100BB0000661C0F80880C0F814C00446706145772B
:100BC000C0F84080C5638563056283778561CCF892
:100BD0001000C0F828900263C262BDE8F0037047BD
:100BE00060090020C1060008AFF30080AFF3008069
:100BF00010B51C4682B0202383F311882346049C41
:100C00000094FFF7BDFF00210446FFF701FF00231A
:100C100083F31188204602B010BD00BFAFF30080FF
:100C200008B50146202383F311880620FFF7D0FE84
:100C3000002383F3118808BDAFF30080AFF3008079
:100C400038B50E4B9C692546606255F8280FA842BE
:100C500006D00368A362FFF793FEA06AA842F8D10A
:100C6000637F9B0704D1636922691A61226953611A
:100C70000E20BDE83840FFF793BE00BF600900209A
:100C8000202383F31188FFF7DBBF00BFAFF30080A1
:100C90000146202383F31188827F013AD2B2827702
:100CA000002383F3118812B9037F0E2B00D0704705
:100CB000437F03F00303012B09D0022BF7D14369D3
:100CC0000269406C1A610A69536100F0B9BB43695B
:100CD00002691A610269536100F04ABBAFF30080F8
:100CE000F0B583B00D4617461E4600F0F9FA0446EB
:100CF00090B1202383F31188089C334629463A4655
:100D00000094FFF73DFF0123437700210446FFF7DE
:100D10007FFE002383F31188204603B0F0BD00BF9F
:100D2000202383F31188044B1869837F0133837771
:100D3000002383F31188704760090020AFF300801F
:100D400010B5202383F31188074B04699C4209D016
:100D5000A37F0133A377002383F31188FFF798FF64
:100D6000204610BD0024F6E760090020AFF30080A4
:100D70000023406000608360704700BFAFF30080D5
:100D8000F8B52F4A836894690546002B51D0A168B5
:100D90009A68914206D91A7F9960042A31D0052AAF
:100DA0001CD092B12B461B689D4203D09968A26863
:100DB0009142F8D25A6823600420626014605C603B
:100DC0006562BDE8F840FFF7EBBD93E806001160EF
:100DD000196818464A60FFF7D3FDE3E758681A68B8
:100DE0005E6A02601F68324678601268964202D0DE
:100DF00090688842F9D251681A6059600B6053605C
:100E0000D0E758681A685E6A02601F6832467860E8
:100E10001268964212D090688842F9D251681A60DE
:100E200059600B605360B368A1689A688A42B2D374
:100E3000B8E7E36B8460C360E063F8BD3246EDE77A
:100E400060090020AFF30080AFF30080AFF30080B3
:100E500008B5202383F31188FFF792FF002383F363
:100E6000118808BDAFF30080AFF30080AFF30080BE
:100E7000154A38B59069202383F31188C46B25681F
:100E8000E368A542C3631CD0016C4BB11A689A4257
:100E900003D09268914238BF1146DB68002BF5D130
:100EA0002B68EA6B8160236028465C600021A560A6
:100EB000E260EC63FFF7ACFD002383F3118820466A
:100EC00038BD0023A360F7E760090020AFF300807E
:100ED00008B5826B037F1143082B81630BD0092B6C
:100EE00000D008BD436A19408B42FAD1FFF748FD94
:100EF0000023436208BD436A1942F7D108BD00BF11
:100F000070B50468A04205460E4608D0201D0BC8E7
:100F10003343E360FFF7DCFF2468A542F6D170BDE0
:100F200010B4024659B1084B9B69586244680D20C1
:100F300083E814005360236010BCFFF749BD4FF0F5
:100F4000FF3010BC704700BF60090020AFF3008085
:100F500010B4C361019B40608A1800240060846063
:100F600041618161C1600261036210BC704700BFD2
:100F700038B50446C36800686361A3610023A042DA
:100F8000A3600AD06FF00105036823605C60FFF77F
:100F9000F7FC45622068A042F6D138BDAFF300806F
:100FA000426908B503468069824298681AD00130C8
:100FB000986002F8011B19695A618A420BD21868BD
:100FC00098420DD002681A605360FFF7D9FC0023E5
:100FD0004362184608BD1868DA6898425A61F1D130
:100FE000002008BD0028E2D06FF0030008BD00BF5C
:100FF00070B5202304460E4683F31188C36903B1FC
:101000009847A568204631463DB9FFF789FF00287B
:10101000F7DA2B4683F3118870BDA3692269013D7D
:10102000A56013F8010B9342A36124BFE368A36199
:10103000002383F3118870BDAFF30080AFF300800D
:101040002DE9F0471E460446C769202383F3118823
:101050004FF0000801F1010901EB020A0FB120462F
:10106000B847A568204631464DB9FFF759FF00281B
:10107000F7D02B4683F311884046BDE8F087A3697B
:10108000013DA56013F8012B09F8012C2269A36129
:10109000934224BFE368A361002383F31188D14501
:1010A00008F10108E8D0202383F3118809F1010930
:1010B000D4E700BFAFF30080AFF30080AFF3008050
:1010C00010B4C361019B40608C1800608260416174
:1010D0008161C1600461036210BC7047AFF300809E
:1010E00038B50269C368044600686361D21AA04239
:1010F000A361A2600AD06FF00105036823605C6001
:10110000FFF73EFC45622068A042F6D138BD00BF23
:10111000F8B504460F461646202383F31188A568C8
:10112000204631463DB9FFF7FBFE0028F7DA2B4693
:1011300083F31188F8BD6369013DA56003F8017B65
:1011400022696361934224BFE3686361E3690BB181
:1011500020469847002383F311881846F8BD00BF46
:1011600041698269914210B50346816816D0013108
:10117000996012F8014B19699A618A420BD218687A
:10118000984206D002681A605360FFF7F9FB00230B
:101190004362204610BDDA689A61F0E70029E6D084
:1011A0006FF0020010BD00BFAFF30080AFF300800E
:1011B0002DE9F0479A46044688461646D0F81C901A
:1011C000202383F311880027A56820466B1EEDB10C
:1011D000A36018F8013B656905F8013B2369656167
:1011E0009D4224BFE3686361B9F1000F00D0C84796
:1011F000002383F311880137013E10D0202383F3AD
:101200001188A56820466B1E002DE1D1204651466D
:10121000FFF786FE0028D7D02B4683F31188384687
:10122000BDE8F087AFF30080AFF30080AFF300803C
:10123000054A064B22F007021A60054A054B22F0C8
:1012400007021A60704700BF371100208009002094
:1012500000C001207C090020AFF30080AFF30080C4
:10126000202383F31188094B09491A68096807305C
:1012700020F00700891A88429ABF101818600022CF
:10128000002383F311881046704700BF80090020B7
:101290007C090020AFF30080AFF30080AFF3008043
:1012A000024B1868024B1B68C01A70477C0900206B
:1012B00080090020AFF30080AFF30080AFF300801F
:1012C000044B0549002203F1100019609A60DA60AE
:1012D000FFF74EBD8809002061120008AFF30080BF
:1012E000F8B51F4E002818BF0646073106F110005A
:1012F00021F0070506F10804FFF7AAFD00E01C46EF
:101300002368EBB15A689542F9D805F1080191427A
:1013100013D86FF00700401B03EB010E821818680A
:10132000CEF8042058505D60C4F800E01C4644F834
:10133000086BFFF79DFD2046F8BD1A682260F5E7AF
:10134000FFF796FD33684BB105F10800984728B1C7
:1013500000F10804066045602046F8BD0024EAE775
:1013600088090020AFF30080AFF30080AFF3008066
:1013700070B50646A0F1080450F8080C00F1080505
:101380001030FFF765FD2B46AB421A6801D0A3422F
:1013900002D21AB1944201D31346F5E756F8041C61
:1013A00046F8082C1C6001F1080256F8085CA018E9
:1013B000A84209D05A6802F1080159188C4211D08C
:1013C000BDE87040FFF754BD4068A25809180831C5
:1013D00046F8041C46F8082C5A6802F1080159180E
:1013E0008C42EDD156F8040C56F8081C121808323D
:1013F00083E80600E4E700BFAFF30080AFF30080AE
:1014000038B50E4C002818BF044604F110000D46F4
:10141000FFF71EFDA3686BB10022144658681B68D5
:1014200012180134002BF9D105B12A60FFF720FD15
:10143000204638BD1A461C46F6E700BF8809002042
:10144000202383F31188026800230A60016083F37C
:1014500011887047AFF30080AFF30080AFF30080D6
:1014600008B500F065FF084801F00AF800F028F818
:1014700000F076F800F09CFA00F0AAFA00F088F983
:10148000BDE8084002F094B830420008AFF3008095
:1014900008494A68801882424B6802D29A4202D9AF
:1014A00070479A42F7D9984294BF00230123002B3A
:1014B000F1D17047001000E0AFF30080AFF300807F
:1014C00001F0EEBEAFF30080AFF30080AFF3008019
:1014D0000123037000234360704700BFAFF3008017
:1014E0000C30FFF7ADBD00BFAFF30080AFF300805D
:1014F0000C304FF0FF33FFF7A3BD00BFAFF3008008
:101500003030FFF755BE00BFAFF30080AFF300806F
:1015100030304FF0FF33FFF74BBE00BFAFF300801A
:101520000C30FFF765BD00BFAFF30080AFF3008064
:101530000C304FF0FF31FFF75BBD00BFAFF3008011
:101540003030FFF7E5BD00BFAFF30080AFF30080A0
:1015500030304FF0FF32FFF7DBBD00BFAFF300804C
:1015600001F07EBFAFF30080AFF30080AFF30080E7
:1015700070B50E4B82B005460446009045F8043B1A
:10158000656001250B46164604F1540110220C300B
:101590002572FFF7DDFC009404F1300004F16401D2
:1015A00010223346FFF78CFD02B070BDA04000084A
:1015B00010B52023044683F3118801F071FF022344
:1015C0002372002383F3118810BD00BFAFF30080A6
:1015D00010B52023044683F3118801F0B9FF0123DD
:1015E000237204F13000FFF77BFD04F10C00FFF7DC
:1015F000BFFCFFF77DFA002383F3118810BD00BF05
:1016000038B5436904460D463BB104F10C00294648
:10161000FFF7C6FC00280BDB38BD04300421FFF7C0
:101620006FFC04F10C002946FFF7BAFC0028F3DA3E
:10163000201D8021BDE83840FFF762BCAFF3008079
:1016400038B5046AD4F8542213681978042900D0F4
:1016500038BD217A0229FBD15279598903EB8203E3
:1016600041FA02F2DB68598A12F00103F0D1E56910
:10167000A0696269281A801A8142E9D883F3118827
:10168000D4F85422B0FBF1F301FB03F31068517955
:1016900004F10C0200F00CFA202383F31188D4F833
:1016A000543218685979BDE8384000F021BA00BFBB
:1016B00010B5046AD4F854321A681178042900D09D
:1016C00010BD217A0229FBD112891B7942FA03F35A
:1016D00013F00103F4D1206CE16BA26B411A8A1A5A
:1016E000EED083F31188D4F85412134608680979B0
:1016F00004F1300200F0ECF9202383F31188D4F8D0
:10170000543218681979BDE8104000F009BA00BFDA
:101710000C30FFF795BC00BFAFF30080AFF3008043
:101720000C304FF0FF33FFF78BBC00BFAFF30080EE
:101730003030FFF73DBD00BFAFF30080AFF3008056
:1017400030304FF0FF33FFF733BD00BFAFF3008001
:101750000C30FFF74DBC00BFAFF30080AFF300804B
:101760000C304FF0FF31FFF743BC00BFAFF30080F8
:101770003030FFF7CDBC00BFAFF30080AFF3008087
:1017800030304FF0FF32FFF7C3BC00BFAFF3008033
:10179000704700BFAFF30080AFF30080AFF300806D
:1017A00030B50F4A0F4B0546044645F8042B83B06D
:1017B0006560012504F1540125720C304FF48072EC
:1017C0000094FFF7C5FB009404F1300004F5AA7102
:1017D0004FF48072044BFFF773FC03B030BD00BFC1
:1017E000C040000841160008B1160008AFF30080A1
:1017F0000A6810B4202383F311880B7902EB83036A
:1018000098614C790934002342F824008C7902EB6A
:10181000840290610222C0F85412027283F311888C
:1018200010BC7047AFF30080AFF30080AFF30080CF
:1018300070B5D0F8543200F10C06044630461D68ED
:10184000FFF796FB04F13000FFF74AFC201D012151
:10185000FFF756FBD4F85432597905EB810328463B
:10186000DB6832465B8A00F023F9D4F854325979A8
:101870002846BDE8704000F03BB900BFAFF30080E0
:1018800090F8443003F06003202B01D00020704713
:1018900090F84530212B03D0222B09D0202BF5D1F5
:1018A000064B83630723C36300230364012070474F
:1018B00000238363C363036401207047040800208E
:1018C00000EB810370B59C6906460D46ACB1202340
:1018D00083F311880821201DFFF712FB216CE26BB6
:1018E000A36B8A1AD21A10D106EB8503DA68536902
:1018F0005B681BB9002383F3118870BD128A013A1B
:101900001340F7D183F3118803E0002383F3118898
:1019100013463046294604F1300200F0D9F820235E
:1019200083F311883046294600F0FAF8E2E700BF59
:1019300001F1090370B550F823400D460646A4B1E5
:10194000202383F3118804216018FFF7D9FA06EBEE
:101950008503E069DA68A1696369528A411AC91A84
:101960008A4203D9002383F3118870BD002383F3D7
:101970001188B1FBF2F302FB03F33046294604F170
:101980000C0200F095F8202383F311883046294695
:1019900000F0AEF8E6E700BFAFF30080AFF30080E1
:1019A000704700BFAFF30080AFF30080AFF300805B
:1019B00001F0FEBBAFF30080AFF30080AFF3008017
:1019C000002301220270436083600C30FFF7D0B91E
:1019D00001F09EB9AFF30080AFF30080AFF3008059
:1019E0000023012202704360C36183620362C36209
:1019F0004362036303814381704700BFAFF30080FC
:101A000038B50446202383F3118800254160C56062
:101A100005614561856101F093F9022323702B462E
:101A200083F3118838BD00BFAFF30080AFF30080AF
:101A300070B50646506914460D4618B100211022B3
:101A4000FEF70EFCA06918B100211022FEF708FC79
:101A500006EB850330462946DC60BDE8704001F0A6
:101A600057BA00BFAFF30080AFF30080AFF3008040
:101A700030B400EB81040025E468A4692570E260BD
:101A80006360A56030BC01F01BBB00BFAFF30080FA
:101A900030B400EB81040025E46864692570E260DD
:101AA0006360A56030BC01F023BB00BFAFF30080D2
:101AB00030B400EB81040125E468A469636000236D
:101AC0002570E260A36030BC01F0FABAAFF3008089
:101AD00030B400EB81040125E4686469636000238D
:101AE0002570E260A36030BC01F002BBAFF3008060
:101AF00070B5448944FA01F313F001060D4601D094
:101B0000012070BD012303FA01F52C43448101F04B
:101B10000FFB304670BD00BFAFF30080AFF3008015
:101B200070B5048944FA01F313F001060D4601D0A3
:101B3000012070BD012303FA01F52C43048101F05B
:101B4000FFFA304670BD00BFAFF30080AFF30080F6
:101B500010B40346002202240470A0F84C2083F83D
:101B60004E2080F84F2002814281C26002614261B2
:101B7000826183F8342010BC01F052B9AFF30080C9
:101B8000F8B50023044680F8343000F1440201F037
:101B900087FA63689B6843B32046984728B3E56B90
:101BA00094F8443094F84B1094F84A2042EA012209
:101BB000AA423CBF1546E26313F0800F2B467DD14D
:101BC000002D68D1052284F83420204629462A4673
:101BD000FFF75EFF202383F3118820462946FFF795
:101BE0009FFF2B4683F31188F8BD94F8443013F01F
:101BF000600711D00021204601F0C2FA20460021E2
:101C000001F0B6FA63681B6813B1204605219847B6
:101C1000062384F83430F8BD94F8456003F07F0261
:101C200042EA0626B6F5407F00F0F98016DDB6F5EB
:101C3000C06F00F0898068DDB6F5106F00F0B480E9
:101C400040F60242964278D0B6F5006FD2D1012517
:101C500004F14F02A263E5632764A3E7022E00F0BC
:101C6000B58065DDB6F5807F00F08780B6F5817FB1
:101C7000C0D194F84620002ABCD194F8482012F034
:101C80000F0150D01206204600F1FA8001F080FAD0
:101C900094F8443047E0042284F8342020460021A0
:101CA000A26BFFF7E5FE202383F311880021204675
:101CB000FFF71EFF002383F31188F8BD95B10122C1
:101CC00084F8342020460021A26BFFF7E1FE202398
:101CD00083F3118800212046FFF722FF002383F3BE
:101CE0001188F8BD032284F83420204629462A466C
:101CF000FFF7BEFE202383F3118820462946FFF715
:101D0000F7FE2B4683F31188F8BD40F2023296426B
:101D100073D0B6F5A06F7FF46DAFB4F84420B2F580
:101D2000A06F00F09B800025A563E563256439E77B
:101D3000002E32D0012E7FF45DAF564A0225A263F9
:101D40000022E56322642DE7626894F8496094F804
:101D50004830556894F8471094F84620204643EAE6
:101D60000623A84700283FF445AF43680568A363EE
:101D7000E563276494F8443014E794F84620012A78
:101D80007FF438AFB4F84C20A76322F00202A4F825
:101D90004C20E76327643D4604E7022504F14C022A
:101DA000A263E5632664FDE694F8462084F84F209C
:101DB000002A44D10322227062681268002AB2D03D
:101DC00020460221904794F84430ACE794F848103C
:101DD00011F0800F204601F00F0133D101F040F9DE
:101DE000012833D002287FF405AF2B4BE063A363B7
:101DF000276494F844300546D4E694F84620002A37
:101E00007FF4F8AE94F8482012F00F018BD013063F
:101E100020463AD401F0ACF994F8443083E794F8C2
:101E20004620012A7FF4E6AEB4F84C20A76342F0C6
:101E30000202A4F84C20E76327643D46B2E6042280
:101E40002270B9E701F01CF90128CBD1134BE663EE
:101E5000A363276494F844303546A3E694F84630EB
:101E6000204684F84E3001F043F863681B6813B1D4
:101E7000204601219847032294F84430227052E70B
:101E800001F08EF994F844304DE701F079F994F8B7
:101E9000443048E7E0400008F040000800410008F6
:101EA00038B590F83430022B044624D0052B36D0B8
:101EB000012B10D0002101F063F92046002101F030
:101EC00057F963681B6813B120460521984706231C
:101ED00084F8343038BD90F84B1090F84A30C26B1B
:101EE00043EA0123934206D9C3681B8AB2FBF3F588
:101EF00003FB1525D5B1002103220B4684F83420BD
:101F000020460A46FFF7B4FD202383F31188002101
:101F10002046FFF7EDFD002383F3118838BD036CE5
:101F200003B19847002384F8343038BD2B46294646
:101F30002A46FFF7ADFD202383F31188204629466A
:101F4000FFF7EEFD2B4683F31188022384F834302B
:101F500038BD00BFAFF30080AFF30080AFF3008067
:101F600090F83430032B10B5044626D0042B11D042
:101F70000021204601F004F92046002101F0F8F884
:101F800063681B6813B1204605219847062384F82F
:101F9000343010BD002105220B4680F834200A465B
:101FA000FFF776FD202383F3118800212046FFF7F9
:101FB000B7FD002383F3118810BDC3689B699B683C
:101FC000002BD5D1036C03B19847002384F834303B
:101FD00010BD00BFAFF30080AFF30080AFF300800F
:101FE000074B08481968026810B53D2401F03D010F
:101FF0009C600AB140689047BDE81040FEF710BBF6
:1020000000600240A8090020AFF30080AFF3008019
:10201000084B09481968826810B589094FF474643F
:1020200001F03D019C600AB1C0689047BDE81040D6
:10203000FEF7F6BA00600240A8090020AFF3008066
:10204000084B09481968026910B5090C4FF474145B
:1020500001F03D019C600AB140699047BDE8104025
:10206000FEF7DEBA00600240A8090020AFF300804E
:10207000084B09481968826910B5890D4FF07464DE
:1020800001F03D019C600AB1C0699047BDE8104075
:10209000FEF7C6BA00600240A8090020AFF3008036
:1020A000074B08485968026A10B53D2401F03D010C
:1020B000DC600AB1406A9047BDE81040FEF7B0BA54
:1020C00000600240A8090020AFF30080AFF3008059
:1020D000084B09485968826A10B589094FF474643D
:1020E00001F03D01DC600AB1C06A9047BDE81040D4
:1020F000FEF796BA00600240A8090020AFF3008006
:10210000084B09485968026B10B5090C4FF4741458
:1021100001F03D01DC600AB1406B9047BDE8104022
:10212000FEF77EBA00600240A8090020AFF30080ED
:10213000084B09485968826B10B5890D4FF07464DB
:1021400001F03D01DC600AB1C06B9047BDE8104072
:10215000FEF766BA00600240A8090020AFF30080D5
:10216000074B08481968026C10B53D2401F03D0189
:102170009C600AB1406C9047BDE81040FEF750BA31
:1021800000640240A8090020AFF30080AFF3008094
:10219000084B09481968826C10B589094FF47464BA
:1021A00001F03D019C600AB1C06C9047BDE8104051
:1021B000FEF736BA00640240A8090020AFF30080A1
:1021C000084B09481968026D10B5090C4FF47414D6
:1021D00001F03D019C600AB1406D9047BDE81040A0
:1021E000FEF71EBA00640240A8090020AFF3008089
:1021F000084B09481968826D10B5890D4FF0746459
:1022000001F03D019C600AB1C06D9047BDE81040EF
:10221000FEF706BA00640240A8090020AFF3008070
:10222000074B08485968026E10B53D2401F03D0186
:10223000DC600AB1406E9047BDE81040FEF7F0B98F
:1022400000640240A8090020AFF30080AFF30080D3
:10225000084B09485968826E10B589094FF47464B7
:1022600001F03D01DC600AB1C06E9047BDE810404E
:10227000FEF7D6B900640240A8090020AFF3008041
:10228000084B09485968026F10B5090C4FF47414D3
:1022900001F03D01DC600AB1406F9047BDE810409D
:1022A000FEF7BEB900640240A8090020AFF3008029
:1022B000084B09485968826F10B5890D4FF0746456
:1022C00001F03D01DC600AB1C06F9047BDE81040ED
:1022D000FEF7A6B900640240A8090020AFF3008011
:1022E0000C4B30B400220C4D0C4C1A6011461346B6
:1022F000E8580C330160A1500832C02BF8D10849CE
:10230000084A4FF0FF338B60CB609360D36030BCE2
:10231000704700BF280A002010410008A8090020CB
:102320000060024000640240AFF30080AFF3008021
:102330001E4B1F491A694FF0FF300022F0B418619C
:102340001A615F6958615A611F6A1A4E1A4D1B4C17
:1023500067F080571F621A625F6A586218485A62B3
:10236000486007208A600860F16841F08071F16080
:10237000296841F001012960196C41F0805119640C
:10238000216841F480712160196F01F44071B1F549
:10239000007F03D04FF4803119671A67074B5A68E2
:1023A00022F400725A60F0BCFFF79ABF0038024076
:1023B00010E000E0F0ED00E0001000E000700040F0
:1023C0003F900200AFF30080AFF30080AFF30080D6
:1023D00025494FF080530B64244B4FF440421A6060
:1023E0000B6843F001030B600B681F4A9807FBD58D
:1023F000136843F48033136011460B681A4A9B0339
:10240000FBD5536F43F00103536711464B6F164AD8
:102410009807FBD5164B15495360136843F080733A
:1024200013604B685A04FCD50F490B680E4A9B0198
:10243000FBD591680F4B0B4393600F4B40F2057136
:102440001960936843F0020393609368064903F0B0
:102450000C03082BF9D14B6C43F480434B644B6E57
:1024600043F480434B6670470038024000700040E0
:102470000854400700940838003C0240AFF3008045
:102480002DE9F00FDFF8BC91DFF8BC81D9F830A05E
:10249000DFF8B8C1654F664E664D674C6749684ABC
:1024A000DFF8ACB16FEA5A2A6FEA4A2AC9F830A0BD
:1024B000D9F850A06FEA5A2A6FEA4A2AC9F850A000
:1024C0004368C8F804308368C8F80830C368C8F89F
:1024D0000C300369C8F814304369C8F820308369A8
:1024E000C8F824300368C8F80030036ACCF8043018
:1024F000436ACCF80830836ACCF80C30C36ACCF855
:102500001430036BCCF82030436BCCF82430C36913
:10251000CCF80030C36B7B60036CBB60436CFB602A
:10252000836C7B61C36C3B62036D7B62836B3B603E
:10253000876D7760C76DB760076EF760476E77612C
:10254000876E3762C76E7762476D3760466F6E6021
:10255000866FAE60C66FEE60D0F880606E61D0F8B6
:1025600084602E62D0F888606E62066F2E60D0F8AC
:1025700090506560D0F89450A560D0F89850E56010
:10258000D0F89C506561D0F8A0502562D0F8A450D6
:102590006562D0F88C502560D0F8AC404C60D0F823
:1025A000B0408C60D0F8B440CC60D0F8B8404C61FA
:1025B000D0F8BC400C62D0F8C0404C62D0F8A840C3
:1025C0000C60D0F8C8105160D0F8CC109160D0F8F1
:1025D000D010D160D0F8D4105161D0F8D810116269
:1025E000D0F8DC105162D0F8C4101160D0F8E420AB
:1025F000CBF80420D0F8E820CBF80820D0F8EC2065
:10260000CBF80C20D0F8F020CBF81420D0F8F42030
:10261000CBF82020D0F8F820CBF82420D0F8E02008
:10262000CBF80020BDE8F00F704700BF0008024063
:10263000000C02400010024000140240001802404A
:10264000001C02400038024000000240000402402A
:1026500000200240AFF30080AFF30080AFF30080B2
:102660002DE9F00F002302F00307C2F38006C2F346
:10267000C105C2F341144FF00F09C2F3C3124FF06A
:10268000010A38E0D0F820B02BEA0C0C4CEA08081C
:10269000C0F82080D0F804C00AFA03F82CEA080C2D
:1026A0004CEA060CC0F804C04FF0030B4FEA430C91
:1026B000D0F808800BFA0CFC6FEA0C0C0CEA080846
:1026C00048EA0508C0F80880D0F80C800CEA080831
:1026D00048EA0408C0F80C80D0F800800CEA080C26
:1026E0004CEA070CC0F800C049081AD07600AD00CB
:1026F000A400BF00013303F0070C4FEA8C0C11F06B
:10270000010F02FA0CF809FA0CFCEDD0072BB9D92D
:10271000D0F824B02BEA0C0C4CEA0808C0F824804E
:10272000B8E7BDE8F00F7047AFF30080AFF300806B
:10273000416D036D00222DE9F00110468F684FF0C6
:10274000804C4FF0FF3617E0585055015C1902F1EC
:1027500058014901C4F81009C4F8086953F8018008
:10276000B8F1000F17DB58505D190132BA42C5F8B5
:10277000100BC5F8086B15D802F1480149015C58E7
:10278000002CE1DA550143F801C05C19D4F80819AE
:102790008907FBD5DAE743F801C0D4F8081BC9065E
:1027A000FBD5E1E74FF00112C3F81C28BDE8F001AA
:1027B000704700BFAFF30080AFF30080AFF300803D
:1027C000F8B5046D04EB41134FF0FF32D3F8086BFA
:1027D000C3F8082B330705460F4603D5D4F8143841
:1027E0001A0715D4F30703D5D4F81438D80700D442
:1027F000F8BD05EB87036989DB68012202FA07F25D
:1028000021EA02026A81DB68284639469847F8BD0A
:1028100000EB8103DB685B689847E3E7AFF3008078
:10282000026D890141F02003136113699906FCD4FC
:102830000C20FEF72DBE00BFAFF30080AFF3008089
:102840002DE9F04F9E49046D8A699E4985B0804606
:1028500020230094916183F311884FF0000998F8C8
:102860000030012B06D0D8F85C307BB900994B6959
:10287000D8060BD4009C9249A2698B6942F01002E1
:10288000A2610220C8F86430FEF78AF8002383F3BF
:1028900011889A46009A536913F0100224D0D8F890
:1028A00050100D6A05F4F013B3F5802F31D0B3F555
:1028B000402FEFD105F00F0208EB8202C5F30A1397
:1028C000D26803339B08146AE4D0022201F58051D8
:1028D000086812B144F8040B013A013BF8D1009AA0
:1028E000536913F01002DAD10124D8F85C3004FAED
:1028F0000AF41C42029470D10AF1010AD8F854304B
:102900009B685FFA8AFA9A45C4D9202383F3118819
:10291000A5E705F00F06023608EB8603C5F30A1596
:102920005B689C692378DBB9221D8CCA0332D21AFA
:10293000EB1C92089B0809D0BE4601F5805108683F
:1029400012B14EF8040B013A013BF8D17F19E76050
:1029500008EB860673689B699A6852199A6099E732
:1029600001F58057E468FDB128460328636907D95B
:102970002269934204D3E368032863616369F7D84B
:10298000D7F800E000222EFA02F103F8011B2169BA
:10299000636108328B4224BFE3686361013803D06E
:1029A000202AE2D06369EEE7202383F31188A3682D
:1029B00020685B19A042A36009D0036823605C60B3
:1029C000FDF7DEFFC0F824902068A042F5D1FEF7A5
:1029D0008FF8002383F31188BAE7202383F311884B
:1029E0000099D8F85C30029C886823EA0401009CB6
:1029F00020F00100A0601346C8F85C1083F3118832
:102A00000AF1020708EB87077C6860698368416800
:102A1000994240F2B680D8F85020258A4FEA4A16EB
:102A20009419C91AD4F818398D4228BF0D469BB2A3
:102A3000B5EB830F0AF1010A2ED84FEA0A31019152
:102A40000378002B40D1EB1C0199C4689B0802EB72
:102A5000010E07D0221D52F8041C0432013BCEF8AF
:102A60000010F8D16419C4607C68606983684168AB
:102A7000EB189942836040F28680D8F85020248A6F
:102A800002EB060ECD1ADEF81839A54228BF2546FE
:102A90009BB2B5EB830FD3D90022202383F3118897
:102AA000009CA36843F00103A3602AB9D4F834382A
:102AB00002990B43C4F83438002383F311881DE7CF
:102AC00060090020E0410008019C02EB040EC4688C
:102AD00025B3D4F810C0039529468A0839D0A569D2
:102AE000BCEB050348BF03339B109A4238BF134623
:102AF0004FEA830BCBEB010143B12A1D52F8040CC2
:102B00000432013BCEF80000F8D15D44AC45A5612C
:102B10001DD8E368A3610029DFD1039D202383F33F
:102B20001188A36820685B19A042A36009D00368DC
:102B300023605C60FDF724FFC0F824902068A04269
:102B4000F5D1FDF7D5FF002383F311888CE7002929
:102B5000E3D000221046A36913F8015B05FA02F5E1
:102B600008326345A36124BFE368A361013940EAE9
:102B7000050001D0202AEED1CEF800000029ACD10A
:102B8000CBE70AF1010A012287E700BFAFF300801B
:102B9000F8B5046D04EB41134FF0FF32D3F8086928
:102BA000C3F80829F30705460F4603D5D4F81038B3
:102BB000DA071FD4330606D50122D4F8343802FAD6
:102BC00007F71F4200D1F8BD202383F31188EB6D76
:102BD000D4F83428686E3B4322EA0707EB65C4F853
:102BE000347818B1FDF7CCFE00236B66002383F325
:102BF0001188F8BD00EB8103B0F808E0DB68012222
:102C000002FA01F22EEA020202819B689847D1E79C
:102C100070B53E4E356D6B69AC691C40E1046C616A
:102C20002BD4A20448BFD5F80838230704D573680D
:102C3000DB680BB135489847E00629D46103D5F825
:102C4000185807D5EA0749D4AB074DD4680751D4C3
:102C5000290755D4220307D5EB0332D4A80336D471
:102C6000690327D42A0303D4BDE87040FDF7D8BC1C
:102C700026480321FFF7A4FDF6E73046FEF768FF7C
:102C800073681B68002BCCD0304600219847C8E7FA
:102C9000202383F31188AB69706E23F01003AB61BE
:102CA00020B1FDF76DFE194B00225A66002383F315
:102CB0001188C3E702211548FFF782FD2A03D3D507
:102CC000D6E712480021FFF77BFDA803C8D50121F4
:102CD0000E48FFF775FD6903C4D5EBE700210B48EB
:102CE000FFF756FFAB07B1D508480121FFF750FFAA
:102CF0006807ADD502210548FFF74AFF2907A9D586
:102D000002480321FFF744FFA4E700BF300A002078
:102D100010B5064C2046FEF763FE0023236663666B
:102D20004FF0A0432365024B636510BD300A0020BD
:102D3000D0410008AFF30080AFF30080AFF3008014
:102D400070B50378056D012B82B0064601D002B044
:102D500070BD2D4B984247D0336E0022F265002B98
:102D600036D02A4B346DEB60294BC5F80038002370
:102D7000C5F8003E4FF45023AB632020FEF788FBDC
:102D8000012323612369D807FCD40C20FEF780FBC4
:102D90002369002BFCDA0024AC603046FFF7C8FC46
:102DA0007368C5F81048DB68C5F81448C5F81C48B6
:102DB00053B143F20803AB614FF0FF336B61AB6873
:102DC00043F00103AB60C2E74FF44053AB61F3E75C
:102DD000009606F168004FF4987102220D4BFDF742
:102DE000CFFE70663066BCE70B4B5A6B42F0800238
:102DF0005A635A6942F080025A6100224320E0215E
:102E00005A61FDF765FCA7E7300A00204014004036
:102E1000030020024128000800380240AFF3008080
:102E20002DE9F04180460021046DFFF7F9FCD8F848
:102E300054E0DEF8080000234FF00065FF2103F1A5
:102E4000480703F1580604EB43127F017601013372
:102E50008342E551A551C2F80819C2F8081BEED902
:102E6000DEF80030D8F850204FF0FF31C4F81818C1
:102E70004FF00111C4F81C18C8F8583063621023D1
:102E80001361136913F01005FBD10C20FEF700FB52
:102E9000D4F80028D8F85810114B22F4FE62C4F878
:102EA0000028A66946F44026092246F01006A661CD
:102EB000C4F81028C4F814280A4A01F1100041F49B
:102EC0008011C8F80C20C4F8105BC4F8003BC4F8AB
:102ED0001059C4F80039C8F85800A162BDE8F08163
:102EE00040800010F0410008AFF30080AFF3008095
:102EF000036D90F84E10D3F8002822F4FE6242EAE7
:102F00000112C3F800287047AFF30080AFF30080D0
:102F10002DE9F0418F1C00EB87030D465B68046DC3
:102F20001A6802F00302022A064652D0032A53D03E
:102F300043494448012A0CBF80468846690160180D
:102F40000022C0F8102BDA68002A48D0588A05F110
:102F50005802520148EA0000A0504FF0010ED4F888
:102F60001C0805F110020EFA02F20243C4F81C28F4
:102F700061189A680020C1F81009002A43D09A8B82
:102F8000198A8B08012A88BF5343B26D05F13F01AE
:102F9000981804EB810142EA0343B065304606EB22
:102FA00087064B602946FFF73BFC7268128A05F1E1
:102FB00048035B0142EA855242EA0802E2500122DC
:102FC000D4F81C3802FA05F51D43C4F81C58BDE8B6
:102FD000F081DFF87880B1E7DFF87480AEE705F1C3
:102FE0005802520105F1100CA05820F40040A050E6
:102FF0004FF0010ED4F81C080EFA0CF220EA02027F
:10300000C4F81C28B4E705F13F0304EB83030E4A20
:1030100029465A603046FFF703FC05F148035B017F
:10302000E25822F40042E2500122D4F81C3802FA9D
:1030300005F523EA0505C4F81C58BDE8F08100BF7A
:1030400000800010008004100004000200800810BE
:1030500000800C10AFF30080AFF30080AFF300806E
:103060005831036D49015B5813F4004004D013F448
:10307000001F0CBF02200120704700BFAFF300808B
:103080004831036D49015B5813F4004004D013F438
:10309000001F0CBF02200120704700BFAFF300806B
:1030A00000EB8101CB681B6A19685B681160536093
:1030B000704700BFAFF30080AFF30080AFF3008034
:1030C00000EB810310B4DB68006D9A695B8A546879
:1030D000013CE41843F0C04200EB4111B4FBF3F3B0
:1030E00042EAC343C1F8103B10BC7047AFF3008005
:1030F00000EB810310B4DA6853695B686BB1128A24
:10310000006D5C1EA418B4FBF2F200EB411143EA1F
:10311000C243C1F8103910BC7047036D03EB411175
:103120004FF40023C1F81039F5E700BFAFF300807A
:103130005831036D49015A5842F080625A50704725
:1031400001F14802036D5201985840F00440985034
:103150000120D3F8342800FA01F11143C3F83418E0
:10316000704700BFAFF30080AFF30080AFF3008083
:103170005831036D49015A5842F400125A507047B1
:103180004831036D49015A5842F400125A507047B1
:103190005831036D49015A5822F400125A507047B1
:1031A0004831036D49015A5822F400125A507047B1
:1031B00070B5114D114B124E124C4FF6FF7228464E
:1031C0001A80FEF7FDFB104B2E62EB6106F1240323
:1031D0006B620E4B2046AB623033EB62FEF7F0FBC6
:1031E0000B4BE361A6F13C0323620A4B303EA36222
:1031F00030336662E36270BDE40B0020E00B002018
:1032000070410008140C0020003001401600010637
:103210000038004016000100AFF30080AFF30080DB
:1032200038B51C4D2B691A69DC681440A4B2E1B2B0
:1032300004F00202C94392B21961002A24D104F0B9
:1032400004039BB2DBB904F008039BB293B904F00A
:1032500010039BB24BB9E30703D56B680D489B681D
:103260009847BDE83840FDF7DBB96B6809489B6AB1
:103270009847F0E76B6807481B6A9847E7E76B6871
:1032800004489B699847DEE76B6828461B699847A6
:10329000D5E700BF440C0020AFF30080AFF30080FF
:1032A00010B5034C2046FEF713F9024B236110BD05
:1032B000440C002000080040AFF30080AFF3008012
:1032C000034B9A8992B242F080029A81704700BF04
:1032D00000100140AFF30080AFF30080AFF3008037
:1032E000034B9A8992B242F080029A81704700BFE4
:1032F00000440040AFF30080AFF30080AFF30080E4
:103300002DE9F041456FAF892C88A988A4B2220726
:103310000646BFB2884649D104F480739BB2002BA5
:1033200032D104F020039BB213BB07F080039BB2A1
:1033300023B104F080039BB2002B58D104F0400469
:10334000A4B29CB1202383F311881021301DFDF716
:10335000D7FD002383F311884FF6BF733B40AB8149
:103360002B8823F040031B041B0C2B80BDE8F0814D
:10337000202383F3118830465FFA88F1FEF740F985
:10338000002383F31188D0E7202383F311884FF4BF
:103390000071301DFDF7B4FD002383F311882B88E5
:1033A00023F480731B041B0C2B80BAE704F0080184
:1033B00089B2002914BF80210021E30704F0020331
:1033C0009BB248BF41F020010BB141F0400104F035
:1033D00004039BB20BB141F48071202383F3118865
:1033E000301DFDF78DFD002383F3118894E7202322
:1033F00083F3118806F13000FDF7B2FE002804DBEC
:10340000A880002383F3118898E7301D0821FDF779
:1034100077FD27F0C00343F04003AB81F1E700BF25
:1034200008B50348FFF76CFFBDE80840FDF7F8B8A2
:10343000580C0020AFF30080AFF30080AFF30080A2
:1034400008B50348FFF75CFFBDE80840FDF7E8B8A2
:10345000D00C0020AFF30080AFF30080AFF300800A
:1034600038B5084D084A094C28460021FEF780F877
:10347000074B084A6B6720460021FEF779F8064B98
:10348000636738BD580C0020C1320008D00C002002
:1034900000100140E132000800440040AFF300801A
:1034A00038B5037A234C002918BF0C46012B05467A
:1034B0001FD06B6F204A93422BD002F5806293425B
:1034C00027D022681D49B1FBF2F21A81A288E08858
:1034D000218942F4045242F02C0240F0400041F0B5
:1034E0000101188299829A8100221A801A889B8889
:1034F00038BD134B984212D0124B9842D9D1124B7F
:103500001A6C42F400322620C0211A64FDF7E0F85C
:10351000CFE722680D49B1FBF2F21A81D6E70A4BD8
:103520005A6C42F010022520C0215A64FDF7D0F8F1
:10353000BFE700BF204200080010014080DE80028B
:10354000580C0020D00C00200038024000BD0105BE
:10355000037A022B00D07047436F00229A811A82AF
:103560009A820B4B98420AD00A4B9842F3D10A4BED
:103570001A6C262022F400321A64FDF7D1B8064BEB
:103580005A6C252022F010025A64FDF7C9B800BF1A
:10359000580C0020D00C002000380240AFF300800F
:1035A000FEF716BFAFF30080AFF30080AFF30080EB
:1035B000704700BFAFF30080AFF30080AFF300802F
:1035C00038B504460D4698B128600C492046FCF7F2
:1035D00027FF241820460949FCF7FAFE286018B195
:1035E000002300F8013B2860237823B1204638BD32
:1035F0000C68002CE9D10024204638BD3043000877
:10360000002903DD0449054A00F0EAB9044B0549E5
:10361000DA6800F0E5B900BF344300084043000811
:103620005009002048430008AFF30080AFF300804A
:1036300010B5002982B0044606DD1949194A02B0C6
:10364000BDE8104000F0CCB91749184A00F0C8F99D
:1036500020461749174A00F0C3F920461649174A71
:1036600000F0BEF920461649164A00F0B9F9204686
:103670001549164A00F0B4F920461549154A00F0DC
:10368000AFF920461449154A00F0AAF9144B154920
:1036900000932046144A154B00F0A2F902B010BD69
:1036A0003443000850430008584300086C430008A6
:1036B0007C430008904300089C430008B043000886
:1036C000BC430008D0430008DC430008F043000876
:1036D000084400081C4400085044000864440008E2
:1036E000B44400088C440008A4440008B044000816
:1036F000014B1B60704700BF480D0020AFF30080F6
:1037000010B52023044683F3118804480021FDF7F7
:10371000F7FB2046BDE81040FDF792BA480D0020A7
:1037200000B583B0034B00900020FDF7D9FA03B039
:1037300000BD00BFE1370008AFF30080AFF30080A9
:10374000F0B5013A83B00E4604460D468F18236843
:1037500001220DF107015B682046984738B39DF8B8
:103760000710042926D008290ED00D2928D01F299A
:10377000EDD9BD42EBD2236820469B6898479DF85F
:10378000073005F8013BE2E7B5422046DFD0236869
:103790009B689847236820219B68204698472368A8
:1037A0009DF807109B6820469847013DCFE7012010
:1037B00003B0F0BD2046064900F012F90120F7E7FA
:1037C0002046044900F00CF900202870F0E700BF03
:1037D000C044000860440008AFF30080AFF30080ED
:1037E0002DE9F043594B06689B69594AD0F804808B
:1037F00058499A6197B0304600F0F2F8DFF87091BE
:103800003046554900F0ECF8304606A94022FFF753
:1038100097FF044600282FD1694606A8FFF7D0FE7F
:103820006946074600206D46FFF7CAFE50B1042CDA
:103830001BD045F8040F694600200134FFF7C0FE95
:103840000028F4D116AA02EB840343F8540C002F8D
:10385000D6D038464149FCF793FDC0B984B1304613
:103860003F493E4A00F0BCF8CAE730463D4900F007
:10387000B7F800230593C3E730463B4900F0B0F8A2
:103880000020FFF73DFF002017B0BDE8F083384669
:103890003649FCF775FD30B93046CCB13049334A72
:1038A00000F09EF8ACE7D9F80000002833D0304D86
:1038B00003E055F8080F00282DD03946FCF760FDCD
:1038C0000028F6D16B683046214601AA984797E751
:1038D000284900F085F8D9F8002042B1244C304640
:1038E000254900F07DF854F8082F002AF7D1B8F1E7
:1038F000000F0BD0D8F8002042B1444630461E4994
:1039000000F06EF854F8082F002AF7D130461B4912
:1039100000F066F874E7B8F1000F0DD0D8F8000099
:1039200050B1454602E055F8080F28B13946FCF77A
:1039300027FD0028F7D1C5E7304611493A4600F087
:103940004FF830460F4900F04BF859E76009002066
:10395000C4440008CC440008E444000810450008B2
:1039600034430008F8440008EC44000818450008F7
:103970000C08002020450008384500086044000875
:103980003C45000840450008AFF30080AFF30080DD
:10399000F0B400F10B0C00F10A050C46B1FBF2F695
:1039A00002FB161101F13003392BC8BF01F13703B7
:1039B000B4FBF2F42F46314605F80139002CEDD165
:1039C000C7EB0C013A46411801E012F8013F00F83C
:1039D000013B8842F9D1F0BC704700BFAFF30080D3
:1039E0000EB42DE9F04F86B00FAB0DF10C0853F873
:1039F000044B02930DF10D03C8EB030C0093064634
:103A0000CDF804C0254615F8011B59B125290ED063
:103A100033682C46254630469B68984715F8011BAD
:103A20000029F3D106B0BDE8F04F03B070476378CA
:103A30002D2B00F012814FF000092E2B00F0098190
:103A4000302B00F0068120272C460299002506E045
:103A50000A78043105EB8505237802EB4505A3F1CF
:103A60003002D2B20134092AF4D92A2BF0D0002036
:103A70002E2B02914BD06C2B55D04C2B53D0A3F155
:103A8000410119298CBF00210121A3F14402342AEC
:103A900000F2D980DFE812F0C800D700D700D700C5
:103AA000D700C800D700D700D700D700D700C6007E
:103AB000D700D700D700D700D700BE00D700D70067
:103AC000B100D700D700D700D700D700D700D70064
:103AD000D700D700D7009100C800D700D700D70083
:103AE000D700C800D700D700D700D700D700C6003E
:103AF000D700D700D7004F00D700BE00D700D700AF
:103B0000B1000A78043100EB800002EB400014F8A9
:103B1000013BA3F13002D2B2092AF4D92A2BF0D00A
:103B20006C2B0291A9D12278002A00F09B800134ED
:103B300013460121A9E7029B5A4AD3F800A0BAF123
:103B4000000F08BF924604339AF80020029347F60C
:103B5000FF73002808BF1846002A00F09F805346D4
:103B6000504402E0904200F0958059785A1C134668
:103B70000029F7D1CAEB020BCBEB0505202725EA7C
:103B8000E575B9F1000F29D0BBF1000FC8BF0AEBF2
:103B90000B0907DD33681AF8011B9B68304698470C
:103BA000CA45F7D1002D3FF42DAF336830469B68EE
:103BB00039469847013DF8D124E7029BDDF804B06F
:103BC0001A68043302938DF80C202027C246CBEBF1
:103BD000050525EAE575B9F1000FD5D16D42002D37
:103BE000D2D09AF800102D2949D0336830469B680E
:103BF000394698470135F8D1C6E71022029B69B1D2
:103C0000191D029119684046FFF7C2FEC246C8EB73
:103C1000000BDCE70A22029B0029F1D1181D19686C
:103C20000290F0E70822E9E7029B1A1DE1B9196842
:103C3000029200291CDB40460A22FFF7A9FEC24679
:103C4000C8EB000BC3E78DF80C30DDF804B0C246BA
:103C5000BDE76B7830270135F6E6A51CA3784FF059
:103C60000109EAE6012110E7196802920029E2DA67
:103C70002D238DF80C3049420DF10D00DCE7302F7B
:103C8000B3D1336830469B6898470AF1010A0BF1BB
:103C9000FF3BAAE7CAEB000B202798E793462027B3
:103CA00095E700BF50450008AFF30080AFF30080F8
:103CB00070B5064C04264FF4005566834FF4FA7035
:103CC0002583FCF7ADFF2683658370BD000C0240A1
:103CD00001480249FDF76CBCD00C002024080020EC
:103CE00001480249FDF764BCD00C002030080020D8
:103CF0000148FDF76DBC00BFD00C0020AFF3008081
:103D000010B5044680B9FFF7F3FF114B022264207F
:103D10001A83FCF785FFFFF7CBFF6420FCF780FFD9
:103D2000BDE81040FFF7DCBF012800D010BDFFF751
:103D3000DFFF074B64201C83FCF772FFFFF7B8FF1F
:103D40006420FCF76DFFBDE81040FFF7C1BF00BF66
:103D5000000C0240AFF30080AFF30080AFF30080AF
:103D6000202970B502460E4600D970BD1149124C8B
:103D700003C9002584E803001146E01DA560E56045
:103D800025616561A561E561256265622585FCF7B0
:103D9000CFFA0A4A034611889278094819809A7026
:103DA000214606F109024FF0FF33BDE87040FDF7F0
:103DB000FFB900BF604500084C0D002060440008BA
:103DC000000D0020AFF30080AFF30080AFF3008060
:103DD0000A4B0B4A9B6910B50A4C9A610A20FCF702
:103DE0001FFF2369DB07F9D5FFF762FF0020FFF70C
:103DF00087FF05480621FFF7B3FFEFE760090020C2
:103E000090450008000002403C080020AFF300800D
:103E1000F0B5002985B0064605DD134905B0BDE8BB
:103E2000F040FFF7DDBD1149114FFFF7D9FDFCF759
:103E300077FF0446A268E368256A0092A27F0D49D5
:103E4000013A0192227F039557F8225030462246CC
:103E50000295FFF7C5FD2046FCF772FF04460028D7
:103E6000E8D105B0F0BD00BF98450008AC4500089A
:103E700010470008DC450008AFF30080AFF3008076
:103E800030B5002983B0044604DD0E49FFF7A8FDD4
:103E900003B030BD01A90020FDF7B2FA0546FDF7D9
:103EA000FFF9094902462046FFF79AFD20462A46B7
:103EB0000649FFF795FD20460549019AFFF790FD59
:103EC000E6E700BFFC4500080C4600082C46000849
:103ED00044460008AFF30080AFF30080AFF30080EA
:103EE000022906D0032906D00748012918BF00205F
:103EF000704706487047032A03D8054800EBC20004
:103F000070470020704700BF00490008D0470008F4
:103F1000D0480008AFF30080AFF30080AFF300801B
:103F2000022938B50C46054611D1202383F31188A8
:103F30000121074AFDF77CFD28462146054AFDF789
:103F400077FD0548FDF774FC002383F3118838BD25
:103F500050470008E0470008780D0020AFF30080CC
:103F60000020202020202020202028282828282049
:103F70002020202020202020202020202020202041
:103F800020881010101010101010101010101010A9
:103F90001004040404040404040404101010101099
:103FA0001010414141414141010101010101010163
:103FB00001010101010101010101010110101010B5
:103FC0001010424242424242020202020202020235
:103FD0000202020202020202020202021010101089
:103FE00020000000000000000000000000000000B1
:103FF00000000000000000000000000000000000C1
:1040000000000000000000000000000000000000B0
:1040100000000000000000000000000000000000A0
:104020000000000000000000000000000000000090
:104030000000000000000000000000000000000080
:104040000000000000000000000000000000000070
:104050000000000000000000000000000000000060
:104060000000000000000000000000000000000050
:1040700069646C65000000000000000000000000A2
:104080006D61696E0016C011040448080C10141804
:10409000001C1D1E1F20000000000000000000008A
:1040A00011150008F1140008511500083115000819
:1040B000411500082115000801150008E114000849
:1040C0004117000821170008811700086117000830
:1040D0007117000851170008311700081117000860
:1040E00000000000000000000000000000000000D0
:1040F00000000000000000000000000000000000C0
:1041000001000000000000000000000000000000AE
:10411000106002400860024000000B00286002406E
:104120000860024006010C00406002400860024046
:1041300010020D00586002400860024016030E0095
:10414000706002400C60024000040F008860024072
:104150000C60024006051000A06002400C600240A6
:1041600010061100B86002400C60024016072F00D4
:1041700010640240086402400008380028640240CD
:1041800008640240060939004064024008640240A5
:10419000100A3A005864024008640240160B3B00C3
:1041A000706402400C640240000C3C0088640240D1
:1041B0000C640240060D4400A06402400C640240FE
:1041C000100E4500B86402400C640240160F460011
:1041D00080000000800100000300000000000000DB
:1041E0007573625F6C6C645F70756D7000000000C9
:1041F00000000000811B0008A11E0008611F0008CC
:1042000040004000C80B0020C80B00200100000047
:10421000D80B00200000000000000000000000009B
:1042200000960000000000400000000000000000B8
:1042300000AAA02A00000000FFABFFFF54000140CD
:10424000FFFF00000000565500AA0A008020080069
:1042500040020000FFFFFFFF15455155FFFF000022
:104260000000000440000000018020020000000067
:10427000FFFFFFFF54154554FFFF000000000060E2
:10428000000606000001005500000000FFFFFFFFD0
:1042900055505500FF0F0000000000000000000016
:1042A0004000000000000000FFFFFFFF00000000D2
:1042B000FFFF000000000000000000000000000000
:1042C00000000000FFFFFFFF00000000FFFF0000F4
:1042D00000000000000000000000000000000000DE
:1042E000FFFFFFFF00000000FFFF000000000000D4
:1042F000000000000000000000000000FFFFFFFFC2
:1043000000000000FFFF00000000000000000000AF
:104310000000000000000000FFFFFFFF00000000A1
:10432000FFFF00000000000000000000000000008F
:104330002009000055736167653A2025730D0A0056
:1043400073797374696D6500256C750D0A00000042
:10435000696E666F000000004B65726E656C3A20F6
:1043600020202020202025730D0A0000322E372E19
:1043700030756E737461626C65000000436F6D7020
:10438000696C65723A202020202025730D0A0000F8
:1043900047434320342E372E3300000041726368B8
:1043A00069746563747572653A2025730D0A00009F
:1043B00041524D76372D4D4500000000436F726528
:1043C0002056617269616E743A2025730D0A0000EF
:1043D000436F727465782D4D34000000506F727415
:1043E00020496E666F3A2020202025730D0A0000B8
:1043F000416476616E636564206B65726E656C20E6
:104400006D6F646500000000506C6174666F726DC2
:104410003A202020202025730D0A000053544D33EC
:1044200032463430372F46343137204869676820A8
:10443000506572666F726D616E636520776974682E
:104440002044535020616E64204650550000000007
:10445000426F6172643A20202020202020202573A2
:104460000D0A000053544D6963726F656C65637487
:10447000726F6E6963732053544D333246342D444A
:104480006973636F76657279000000004275696C2C
:10449000642074696D653A20202025732573257387
:1044A0000D0A00004E6F7620203720323031330065
:1044B000202D200032303A33373A333900000000E3
:1044C0005E4400007368656C6C0000000D0A436870
:1044D0006962694F532F5254205368656C6C0D0A02
:1044E0000000000063683E20000000000D0A6C6FB1
:1044F000676F757400000000746F6F206D616E79D6
:1045000020617267756D656E74730D0A000000009E
:10451000657869740000000068656C700000000038
:10452000436F6D6D616E64733A2068656C702065D1
:1045300078697420000000002573200025730000B6
:10454000203F0D0A000000000000000000000000F5
:10455000286E756C6C29000000000000000000004F
:1045600041542B4E414D450000000000000000006A
:10457000E8460008813E0008EC460008113E0008AD
:10458000000000000000000000000000000000002B
:10459000726561646572000055736167653A2074E5
:1045A0006872656164730D0A0000000020202020FD
:1045B0006164647220202020737461636B207072C8
:1045C000696F2072656673202020202073746174E7
:1045D000652074696D650D0A00000000252E386C99
:1045E0007820252E386C782025346C752025346C85
:1045F000752025397320256C750D0A005573616788
:10460000653A206D656D0D0A00000000636F7265EC
:104610002066726565206D656D6F7279203A202580
:10462000752062797465730D0A0000006865617019
:1046300020667261676D656E74732020203A2025B4
:10464000750D0A0068656170206672656520746F7B
:1046500074616C20203A2025752062797465730D91
:104660000A0000005245414459000000435552528F
:10467000454E540053555350454E444544000000A8
:10468000575453454D00000057544D5458000000F6
:104690005754434F4E440000534C454550494E47F4
:1046A00000000000575445584954000057544F52D9
:1046B000455654005754414E44455654000000009E
:1046C000534E444D53475100534E444D5347000001
:1046D00057544D5347000000575451554555450018
:1046E00046494E414C0000006D656D00746872656E
:1046F0006164730000000000000000000000000082
:10470000780D002070450008000000000000000047
:10471000644600086C46000874460008804600089D
:10472000884600089046000898460008A4460008FD
:10473000AC460008B4460008C0460008C846000859
:10474000D0460008D8460008E046000800000000F7
:104750000200000000000000C11800083119000824
:104760004000400000110020201100200200000045
:104770000000000000000000000000000000000039
:1047800009024300020100C03209040000010202D4
:104790000100052400100105240100010424020287
:1047A0000524060001070582030800FF0904010033
:1047B000020A00000007050102400000070581020F
:1047C00040000000000000000000000000000000A9
:1047D00043000000804700080000000000000000C7
:1047E0000300000000000000A11900080000000004
:1047F0001000000010110020000000000100000067
:1048000000000000000000000000000000000000A8
:10481000213F0008E13E0008811800080000000068
:1048200012011001020000408304405700020102FF
:104830000301000000000000000000000000000074
:104840000403090400000000000000000000000054
:104850002603530054004D006900630072006F008E
:1048600065006C0065006300740072006F006E00EC
:1048700069006300730000000000000000000000F9
:104880003803430068006900620069004F0053006C
:104890002F0052005400200056006900720074007E
:1048A000750061006C00200043004F004D002000A7
:1048B00050006F0072007400000000000000000053
:1048C0000803320037003000000000000000000044
:1048D000040000004048000826000000504800087E
:1048E000380000008048000808000000C0480008A8
:1048F000300A00200101020000000000000000005A
:0849000012000000204800082D
:10490800603F0008009600000000080050430008BF
:104918003136000840430008013600080000000056
:1049280000000000009600000000000000000000E9
:104938000096000000000000000000004661726B55
:044948006173000097
:04000005080004816A
:00000001FF
